:100000000C94BF010C94DC010C94DC010C94661B75
:100010000C94DC010C94DC010C94DC010C94DC01EC
:100020000C94DC010C94DC010C9496220C946A2351
:100030000C94AA1D0C94DC010C94DC010C94DC01E2
:100040000C94DC010C94DC010C94DC010C94DC01BC
:100050000C94DC010C944D1E0C94DC010C94DC011E
:100060000C94DC010C94DC010C94DC010C94DC019C
:100070000C94DC010C94DC010C94DC010C94DC018C
:100080000C94DC010C94DC010C94DC010C94DC017C
:100090000C94DC010C94DC010C94DC010C94DC016C
:1000A0000C94DC010C94DC010C94DC0114001A00AB
:1000B00008001500170004221621072409280A0049
:1000C0001D001B000600190005002B412C0000003C
:1000D000000000001C0018000C00120013000B00B0
:1000E0000D380E340F313332110010003600370056
:1000F00038002A0028420000000000001E001F00F7
:10010000200021002200E100AA00A900AB00AE00FF
:100110003A003B003C003D003E00010001000000B1
:100120000000000023002400250026002700010015
:10013000440045000100E5003F004000410042004E
:10014000430001000100000000000000290035000C
:100150002002210222021E023400260227022D0064
:100160001F0231002F0030002E00010001000000AE
:10017000000000004C004A004D00010011705000CA
:10018000510052004F00E50049004E004B000100B5
:10019000010001000100000000000000000000005C
:1001A000000000002A2B28000000000000000000D2
:1001B0000000000000000029000000002C1E342078
:1001C000212224342627252E362D3738271E1F209E
:1001D0002122232425263333362E37381F040506E3
:1001E0000708090A0B0C0D0E0F1011121314151627
:1001F0001718191A1B1C1D2F3130232D3504050625
:100200000708090A0B0C0D0E0F1011121314151606
:100210001718191A1B1C1D2F3130354C0000000017
:1002200000000000000000000000000000000000CE
:1002300000000000000000000000000000000000BE
:100240007E0F00D4FFFFFFC7000000781A034600AE
:10025000650072007200690073002000730077006F
:100260006500650070000000080344005000420073
:1002700000000403090409023B00020100A0FA097E
:1002800004000001030101000921110100012240C5
:1002900000070581030800010904010001030000B3
:1002A00000092111010001227B00070582032000C3
:1002B000011201000200000008ABC239390100013F
:1002C00002000105010902A10185020901A1000541
:1002D00009190129081500250195087501810205F4
:1002E00001093009311581257F95027508810609BC
:1002F000381581257F950175088106050C0A38029D
:100300001581257F950175088106C0C0050109800A
:10031000A101850319012AB700150126B70095012F
:1003200075108100C0050C0901A101850419012A7D
:10033000A002150126A002950175108100C00501DB
:100340000906A101050719E029E71500250195080F
:10035000750181029501750881010507190029FFC2
:10036000150026FF0095067508810005081901296A
:1003700005950575019102950175039101C0112440
:100380001FBECFEFDAE0DEBFCDBF11E0A0E0B1E0ED
:10039000E2E5FCE402C005900D92A83CB107D9F754
:1003A00022E0A8ECB1E001C01D92AB3BB207E1F73F
:1003B0000E946E140C94E0250C9400008330B8F475
:1003C0006830A8F4453098F450E095E0699F400DFE
:1003D000511D1124FA0198E2899FE00DF11D1124AD
:1003E000EE0FFF1FE455FF4F85919491089581E032
:1003F00090E008950E94DE0108959C013A95211530
:100400003F4150F5FC01EE27F170BC016627727088
:10041000AC01442754709C012227387094FF0EC011
:1004200080E1EF2B09F480E0672B09F08062452B17
:1004300009F08064232B89F08068089581E0EF2B18
:1004400009F480E0672B09F08260452B09F0846095
:10045000232B19F08860089580E00895CF93DF93EF
:10046000EB010E94FD01FE010995DF91CF910895F6
:10047000CF93DF93EC01805E9109089720F068EC40
:1004800076E0209711F46BE774E0CE010E942E0213
:100490008C2F0E94DA03DF91CF910895CF93DF93E1
:1004A000EC010E942704CE01805E9109089720F09C
:1004B0006FEC76E0209711F462E874E0CE010E94C0
:1004C0002E02DF91CF9108950F931F93CF93DF9367
:1004D0008C01EB010E943802209741F4C8010E9470
:1004E0004E02DF91CF911F910F9108958FE99FE008
:1004F0000197F1F700C000002197EECF70E060E0B7
:100500008933910511F460E570E00E94640208955A
:1005100081E0089581E008950E948A020895089577
:100520000E948F020895A5E0B0E0E9E9F2E00C94A2
:100530004C2549835A833091CF0189819A813111A9
:1005400019C0662399F0222389F00E944108182FD0
:10055000682F89819A810E941D0869817A81812F83
:100560000E943A0F2596E3E00C9468250E942F081C
:10057000182FF3CF0E94410869817A81F1CFFC01E5
:10058000262F408151816281738184810E94930270
:10059000089581E00895CF93DF93EC0160E00E941D
:1005A000BF02BE010E949002DF91CF91089508958D
:1005B0000E94EC060E94D7022FEF84E39CE02150BA
:1005C00080409040E1F700C0000008950E94D802EA
:1005D0000E94711E08950E94D8020E94821E0895F2
:1005E0000F931F93CF93DF938C0161E00E94BF02B2
:1005F000EC01B8010E948C02811106C080E0DF91FD
:10060000CF911F910F910895B801CE010E94251737
:100610008823A1F3B801CE010E94821A882371F3C6
:10062000B801CE010E94B018882341F3B801CE0171
:100630000E94F419882311F3F8018281882361F064
:10064000C330FCE7DF07E9F058F4C115ECE7DE073B
:10065000A9F0C130DC47B9F0C8010E948802CFCFB1
:10066000CB358CE7D807A9F0CC35ECE7DE0771F085
:10067000CA35DC4789F70E948F0CEECF0E94E60254
:10068000BDCF0E94970C0E94EB02B8CF0E94850C50
:10069000E3CF0E94930CE0CF0E94871D0E9473035A
:1006A00008950E9477030E948C1D0895089581E0AB
:1006B00008950895CF93DF93D82F0E945703C82F32
:1006C000882319F08D2F0E9459038C2FDF91CF9131
:1006D00008950895CF93C82F0E9456038C2F0E942F
:1006E0005A03CF91089580E00E946A0308950E9402
:1006F0008C1C0E946A030895CF930E948C1CC82F03
:100700008091CA018C1779F0C093CA010E94161E0D
:100710006093CB017093CC018093CD019093CE0177
:100720008C2F0E946A03CF910895ABE0B0E0EBE913
:10073000F3E00C944D254F83588769877A878B8720
:1007400061110E94D00B1E821D8285E0FE0137964A
:10075000DE01119601900D928A95E1F78C819D81C1
:10076000892B61F449815A816B817C818D819E81C5
:100770000E94F50A2B96E2E00C94692589819A8102
:1007800089238F3F79F3CE0101960E94C90281111E
:10079000E9CFF0CFFC01808191810E947308089518
:1007A000662329F00E94F2140E94C51508950E9444
:1007B0004C15FACFCF93C82F8823B9F08CEF8C0F4C
:1007C000813AA8F46C2F80910001909101010E9460
:1007D000181D882329F08C2F0E948D0B0E94F10B8D
:1007E0008C2F0E94850B0E94F10BCF91089580E21F
:1007F0008C0F883048F4C77081E001C0880FCA951B
:10080000EAF70E94B00BEFCFEBE5EC0FE33040F4DA
:10081000F0E0E657FE4F808190E00E94BC1CE5CFDF
:10082000E8E5EC0FEB3150F4F0E0EE0FFF1FEC5A6F
:10083000FE4F808191810E94E11CD7CF83E38C0F12
:10084000833198F661E08C2F0E94D003CECF8823AD
:1008500081F19CEF980F913A28F40E948D0B0E9431
:10086000F10B089590E2980F983050F4877091E062
:1008700001C0990F8A95EAF7892F0E94B60BEFCF36
:100880009BE5980F933028F490E080E00E94BC1C18
:10089000089598E5980F9B3128F490E080E00E943D
:1008A000E11C089593E3980F933118F460E00E94DF
:1008B000D00308951F93CF93DF93182FEB010E946D
:1008C000DA03209739F4812F0E942704DF91CF911A
:1008D0001F9108958FE99FE00197F1F700C0000094
:1008E0002197EFCF70E060E0893311F460E570E0AC
:1008F0000E945A040895882321F00E94B00B0E94A0
:10090000F10B0895882321F00E94B60B0E94F10B91
:100910000895B0E0A0E0EFE8F4E00C9446256C0107
:10092000D62FC72FFC011281058102950F700E94FE
:10093000A60BE82E8823E9F0E12E1123D1F08C2FAD
:10094000807F803451F080E28D0F8830F8F0011103
:1009500004C08C2F807E8032C9F08091910282FF8A
:1009600015C082E00E94540C0E94A60B91E0E82E74
:10097000E926BC2EB2949FE0B922FBE0FB15B8F14A
:10098000EB2DF0E0EE51FA4D0C943725E12CF1CF30
:100990000C2F0F70C07F11F00295007F112399F08A
:1009A000002359F080E28D0F883010F0D11107C07C
:1009B000802F0E94B00B0E94F10B8D2F5CC0802F06
:1009C0000E94C30BF8CF8D2F0E942704002379F0DB
:1009D00080E28D0F883010F0D11104C0802F0E946A
:1009E000B60B03C0802F0E94C90B0E94F10BEB2DA8
:1009F000E850FF0B349720F40E948C1C0E946A037D
:100A0000EE2089F00E94A20B80FD0DC0F60112823B
:100A10000E949C0B0E947B07C6010E949E060E94BA
:100A20009C0B0E948B07CDB7DEB7E9E00C946225E2
:100A30002C2F2F70F22EC07FC03219F0F29480EF6D
:100A4000F822DD2351F0D13009F443C0112309F419
:100A50004BC0002309F442C0B0CF8091910282FDC7
:100A600015C0112359F0FF2029F08F2D0E94B00BE3
:100A70000E94F10B80E00E94DA03B9CF80E00E946F
:100A80002704FF2009F4B3CF8F2DA9CF112381F0C4
:100A9000011106C00E94D30B8F290E947B04A7CFAF
:100AA0000130C1F70E94D30B8F290E94DA0B9FCF30
:100AB000011106C00E94E70B8F2D0E94820497CF80
:100AC000013009F494CF8F2D0E9482040E94E70B1D
:100AD0008ECF112329F0063008F089CF8F2DDDCF7E
:100AE000053008F084CFE8CF002331F3D93349F43F
:100AF0003FEF87EE93E0315080409040E1F700C037
:100B000000008D2F0E94270472CF8C2F869586952A
:100B1000837069F0813009F06ACF8D2F9C2F93701C
:100B2000111102C080E090E00E94E11C60CF8D2F87
:100B30009C2F9370111102C080E090E00E94BC1CB9
:100B400056CF612F8D2F0E94D00351CF8C2F8370F1
:100B5000A1F511114CCF4D2F429546954770440F8A
:100B6000440F2D2F2F7030E0042E02C0220F331FB0
:100B70000A94E2F790E080E0D4FF09C08FE090E0B3
:100B800002C0880F991F4A95E2F780959095C69507
:100B9000C695C370822B932BC23049F058F4C130F4
:100BA00019F00E944B0723CF0E94420720CF0E94DA
:100BB00054071DCF0E943F071ACF8695112311F0CD
:100BC0008C2F8170882309F412CF4D2F42954695C2
:100BD0004770440F440F2D2F2F7030E0042E02C0B9
:100BE000220F331F0A94E2F790E080E0D4FF09C09F
:100BF0008FE090E002C0880F991F4A95E2F7809538
:100C00009095C695C695C370822B932BC23049F040
:100C100058F4C13019F00E94B607E9CE0E94AD0722
:100C2000E6CE0E94BF07E3CE0E946307E0CECF70FE
:100C3000112329F08C2F0E947B078D2F2ECF8D2F13
:100C40000E9482048C2F0E948B07D1CED23F41F1AB
:100C500060F4D03FB9F0D13F81F0112309F446C0D0
:100C60000111ABCE8C2F8F711FC0D33F01F1D43F48
:100C7000A1F78091910282FD24C08C2F8F711123E6
:100C800011F312C0112341F0053008F0B0CE8C2FC3
:100C90008F710E949D07ABCE063008F0A8CEF7CF2B
:100CA0008C2F8F711111CFCF0E947B07A0CE112303
:100CB00029F08C2F8F710E946F0799CE0E946A07CE
:100CC00096CE112349F0CF718C2F0E947B0763E0F1
:100CD0008C2F0E94360C8BCE81E00E94540C023087
:100CE00008F485CE82E00E94540C81CE002359F096
:100CF000D93309F006CFEFEFF7EE23E0E150F040F3
:100D00002040E1F7FCCE8C2F8F719DCF0F931F9366
:100D1000CF93DF93EC01688179818A810E947E08FC
:100D20008C010E94C8070E943E07B801CE010E94B4
:100D30008904DF91CF911F910F910895CF93DF9395
:100D4000EC018B819C81892B29F0888199818923F1
:100D50008F3F51F4DF91CF910895CE010E94860616
:100D6000CE010E94CB02F6CFCE010E94F00281118B
:100D7000F4CF0E94A60B882369F38A81882351F35C
:100D80008091910282FFE6CF82E00E94540CE2CF74
:100D9000882321F00E94C30B0E94F10B0895882341
:100DA00021F00E94C90B0E94F10B089590E080E0B1
:100DB0000E94BC1C90E080E00E94E11C0E94D00BCD
:100DC0000E94F10B0E94E1150E94C51508950E9432
:100DD000950B0E94D60608950E94C00B0E94E7065C
:100DE000089592959F70963091F058F4925F9F709D
:100DF000923058F4803F19F030F4883E30F481E0AE
:100E000008959A5FF4CF843FD1F380E00895883E3F
:100E1000B0F3813FD1F7F3CFFC0183819481892B1B
:100E200029F08081918189238F3F11F480E008951A
:100E3000808191810E9473080E94F1060895A5E0C7
:100E4000B0E0E5E2F7E00C944D252596E2E00C9445
:100E50006925A6E0B0E0EFE2F7E00C944D25269678
:100E6000E2E00C94692508950E94330708950E94DA
:100E700034079093E7018093E601089508950E9456
:100E8000370708952091E6013091E701822B932BDB
:100E90000E94370708952091E6013091E7018223EF
:100EA00093230E94370708952091E6013091E701CE
:100EB000822793270E94370708950E9433070895D9
:100EC0000E945D0708950E9460079093E50180935A
:100ED000E401089590E080E00E946307089521E016
:100EE00030E0A90102C0440F551F8A95E2F7CA01FC
:100EF0000E946307089521E030E002C0220F331FF3
:100F00008A95E2F78091E4019091E501822B932B81
:100F10000E946307089521E030E002C0220F331FD2
:100F20008A95E2F7209530958091E4019091E50152
:100F3000822393230E946307089521E030E002C0DA
:100F4000220F331F8A95E2F78091E4019091E50129
:100F5000822793270E94630708952091E40130912E
:100F6000E501822B932B0E94630708952091E401F1
:100F70003091E501822393230E9463070895209115
:100F8000E4013091E501822793270E9463070895C9
:100F90000895262F277091E001C0990F2A95EAF74E
:100FA00023E0769567952A95E1F7660F771F660F20
:100FB000771FFA01E60FF71F50E040E0682F70E05E
:100FC0008191DF0111979B01042E02C03695279570
:100FD0000A94E2F7217021952827292328272C93AA
:100FE0004F5F5F4F4430510559F70895A82FA77000
:100FF00023E0969587952A95E1F7880F991F880F2A
:10100000991FFB01E80FF91F50E040E080E02191BB
:1010100030E00A2E02C0369527950A94E2F7217037
:101020003327042E01C0220F0A94EAF7822B4F5F68
:101030005F4F4430510559F70895262F983070F4CA
:10104000853060F4682F70E085E0989F600D711D19
:10105000112440ED51E0822F0E94C9070895292FE5
:10106000983068F4853058F490E060ED71E035E038
:10107000239F800D911D11240E94F607089580E0A2
:101080000895B0E0A0E0E7E4F8E00C9446257C0188
:101090000091E4011091E5018091E6019091E70152
:1010A000082B192BCFE0D0E0CC24C394D12CBC2E3C
:1010B000C6010C2E02C0880F991F0A94E2F7802304
:1010C0009123892B49F4219790F7B12C8B2DCDB723
:1010D000DEB7E9E00C946225B7018C2F0E94460F21
:1010E000019789F3F3CFCF93DF93EC010E9441087E
:1010F000BE010E94460FDF91CF9108951F93CF93B9
:10110000DF93EB019091CF01992339F0CB010E943D
:101110007308DF91CF911F910895882369F0CB0167
:101120000E944108182F682FCE010E941D08BE01A1
:10113000812F0E94460FEDCFCB010E942F08182F60
:10114000F6CF1F93CF93DF93C091E80116E0809113
:10115000E9018C1304C0DF91CF911F910895D0E075
:101160001C9FF0011D9FF00D1124E651FE4F4081A0
:10117000518162817381848195810E942907219622
:10118000C770E5CF40911A0250911B0260911C027A
:1011900070911D0280911E0290911F020E942907EA
:1011A00008952091E8019091E90156E0291302C0C9
:1011B00080E0089530E0529FF001539FF00D11241C
:1011C000E651FE4F7181761306C07081781303C01B
:1011D0007281741304C02F5F3F4F2770E7CF81E007
:1011E00008951F93CF93DF9380911F02807F09F0B2
:1011F0004BC080911C02882309F446C08091E8010D
:10120000C091E90140911A0250911B0260911D02A8
:1012100070911E02D42FD52316E0C817A9F190E0D3
:1012200061157105A9F1DF3F99F1189FF001199F30
:10123000F00D1124DF01A651BE4F11962C9111978C
:10124000251326C02C91241323C012962C9112979B
:1012500021111EC013962D913C91261B370B2D3169
:101260003140B0F480911F028F70806180931F0223
:10127000E151FE4F80818F70806180838AE192E02E
:101280000E949E060E94A108DF91CF911F910895B0
:1012900001968770C2CFA1E1B0E0E1E5F9E00C94DE
:1012A00043258C0185E0F801DE011D9601900D9229
:1012B0008A95E1F7D8011296EC9012978AE1A82E50
:1012C00082E0B82E40911D0250911E024115510539
:1012D00009F472C190911A0220911B02892F822376
:1012E0008F3F09F469C1CC901196DC901197139649
:1012F0008D909C901497F0901C02F401E41BF50B68
:10130000AF01FF2009F406C180911F02382F307F02
:101310004D31514008F0C0C031118BC0FE2C2D1151
:1013200017C09C1115C0E11013C08F7080618093AD
:101330001F020E94C208C5010E949E0680911F02E2
:10134000D80115968C938F2D6196ECE00C945F2557
:1013500081149104E9F08C2D8D218F3FC9F081E03B
:101360008E2580FF17C04E2D6D2D8C2D0E94D1082B
:10137000882381F08AE192E00E949E0686E0EAE1FD
:10138000F2E0DF011D928A95E9F70E94C2084FC082
:1013900080E0E7CF8114910449F18C2D8D218F3F9E
:1013A00029F181E08E25B82FB170BB2E80FF37C0A8
:1013B0004E2D6D2D8C2D0E94D108A82E81112FC08D
:1013C000CD86DE868D859E850E947308292F229505
:1013D0002F70243068F49F70223098F09923A9F080
:1013E000F8019581907F89F4FA2CADCF80E0DBCFB6
:1013F0002A5F2F70223068F0C8010E949E06AB2C35
:10140000F3CF992311F0882379F3805E883060F35D
:10141000F3CF803F48F3815F833070F7E5CFEE2054
:1014200009F491CF80911F02816080931F02F12CFB
:101430008ACF2D1105C09C1103C0EE2009F487C08E
:10144000C8010E940C07882319F1EE2009F1809150
:101450001F02803270F020911A0230911B023887EF
:101460002F8319869B868A868C87CE0107960E94D9
:101470009E0686E0F801AAE1B2E001900D928A95FD
:10148000E1F70E94F1080E94C208FF24F3945BCFA9
:10149000C8010E949E06F9CF311112C0782D998A99
:1014A000888AA6016E2D89890E941F078AE192E031
:1014B0000E949E0686E0F50111928A95E9F765CFB4
:1014C0002D110FC09C110DC0E1100BC015968C930F
:1014D000C8010E949E0686E0F50111928A95E9F7FF
:1014E00032CFC8010E940C07882391F2EE2081F2CE
:1014F00080911F02803208F4BCCF20911A023091F3
:101500001B023A8329831B829D828C828E83CE01AB
:101510000196ADCF4D31514008F040C0FE2CEE2079
:1015200009F4B6CF2D112CC09C112AC080911F0246
:1015300080FD1DC0982F907FD1F015968C93159744
:10154000903F39F0982F907F905F8F70892B159680
:101550008C93C8010E949E0686E0F801AAE1B2E0E1
:1015600001900D928A95E1F70E94C208ECCE86E0C8
:10157000F801AAE1B2E001900D928A95E1F7E3CE7D
:10158000C8010E940C07811174CF80911F028160F5
:1015900080931F02C8010E949E06D5CE782D998A9D
:1015A000888AA6016E2D89890E941F0786E0F501B1
:1015B00011928A95E9F7D8CFEE2009F469CFC801D6
:1015C0000E940C07F82E882309F462CF86E0F80108
:1015D000AAE1B2E001900D928A95E1F78AE192E0EA
:1015E0000E94CA030E94F108BFCFACE0B0E0EBEF6D
:1015F000FAE00C944C254F83588769877A878B874C
:101600009C87CE0107960E944B098823B1F08A85FA
:101610009B85892B39F04F815885842F85238F3FF7
:1016200009F06CC016E08091E8019091E9018913FE
:1016300043C02C96E3E00C94682586E0FE013796C3
:10164000DE01119601900D928A95E1F78A859B85BE
:10165000892B41F38F81988589238F3F19F320913E
:10166000E90130E0C9010196877099274091E801AE
:101670004817190671F40E94EC061092E9011092C5
:10168000E80186E0EAE1F2E0DF011D928A95E9F7E0
:10169000C9CF96E0929FD001939FB00D1124A6511F
:1016A000BE4FFE01319601900D929A95E1F780931D
:1016B000E9010E94A108B6CF819FC0011124865183
:1016C0009E4F0E944B09882309F4B3CFE091E801B3
:1016D0001E9FF0011124E651FE4F4081518162812D
:1016E0007381848195810E9429078091E80190E0AF
:1016F0000196877099278093E80195CF69857A854F
:101700008B859C850E9429078DCF682F80910001D1
:10171000909101010E944E1D0895682F8091000153
:10172000909101010E94511D0895809100019091B6
:1017300001010E94541D0895809128028595859588
:1017400085950895809128028770089590912802C8
:10175000977081E009F480E0089580913302089544
:1017600090913302892B8093330208958095909154
:10177000330298239093330208958093330208959F
:1017800010923302089590913202892B8093320295
:101790000895809590913202982390933202089593
:1017A00010923202089580912902089508950E94AE
:1017B000D60B08959091910292FF08C09091290252
:1017C000981721F0809329020E94D70B08958091E9
:1017D0002902882329F01092290280E00E94D70B69
:1017E0000895CF93DF93E0910001F0910101809182
:1017F00033028083E0910001F0910101808190919A
:101800003202892B808390912902992381F0E09103
:101810000001F09101018081892B8083809100017A
:10182000909101010E94061D81110E94E70BC09159
:101830000001D091010148E050E060E272E0CE0189
:101840000E948825892B59F088E0FE01A0E2B2E0D1
:1018500001900D928A95E1F7CE010E94A31CDF91C1
:10186000CF91089508950E94320C089590919102AD
:1018700092FF11C098E0899F90011124622B609320
:1018800028020E947B078091280285958595859581
:101890000E94330C08950E947B070895109228023D
:1018A00080E00E94330C089590912802809589234E
:1018B00080932802282F277091F4282F082E000CDF
:1018C000330B9217130659F09091910292FF07C0C3
:1018D0008595859585950E948B070E944E0C0895ED
:1018E0009091910292FB222720F9281769F080FB42
:1018F00092F99093910280919002909191020E94AE
:10190000B80C82E00E94540C08958091910282FBF1
:10191000882780F991E089270E94700C089581E062
:101920000E94700C089580E00E94700C08956FEF83
:101930007FEF90E080E00E94CA25089590E080E06B
:101940000E94A62521E0873E9E4F09F020E0822FCD
:10195000089582E090E00E949E25089583E090E043
:101960000E949E25089584E090E00E94A625089597
:10197000BC0184E090E00E94CA250895AB01BC013F
:101980008FE090E00E94BE250895AB01BC0183E189
:1019900090E00E94BE25089560E070E0CB010E94B7
:1019A000C50C089560E070E0CB010E94BE0C0E945F
:1019B000CC0C089567EE7EEF90E080E00E94CA258F
:1019C00060E082E090E00E94AC2560E083E090E07F
:1019D0000E94AC251092E7011092E60160E074E1EC
:1019E00084E090E00E94CA2560E086E090E00E94DA
:1019F000AC256FEF87E090E00E94AC2540E050E01E
:101A0000BA0188E090E00E94BE2560E08DE090E0A1
:101A10000E94AC2540E050E0BA0188E190E00E94CD
:101A2000BE2560E087E190E00E94AC2540E050E0F8
:101A3000BA018CE190E00E94BE2570E060E080E297
:101A400090E00E94CA2540E050E0BA0188E190E0B1
:101A50000E94BE250E94D20C08950E94DA0C0895BF
:101A60008EE090E00E949E2591E0811101C090E0FF
:101A7000892F0895682F8EE090E00E94AC2508958C
:101A8000A5E0B0E0E6E4FDE00C944B250E940A1EC0
:101A90008C01809134029091350280179107A1F05A
:101AA0008FEF89838A831B820E940A1E8160782FB0
:101AB0009D838C8349815A816B818D810E9495031E
:101AC00010933502009334022596E4E00C946725C8
:101AD0000E94161E60934202709343028093440258
:101AE0009093450260933E0270933F0280934002C0
:101AF000909341020895089508950E947C0D0895E1
:101B000008950E94800D089581E0089580E790E196
:101B10000E94821C0E947B0D0E947D0D08950E94F0
:101B20005F120895089508950E94920D0E94930DEA
:101B300008950E949C100E9469030E9475170895E1
:101B40000E94011E0E9430100E9477120E948C1188
:101B50000E94990D0E94FF160E9487120E94810D1B
:101B60000895A5E0B0E0E7EBFDE00C9445250E9468
:101B7000840D81110CC00E94400D0E945F120E94D2
:101B800003160E947C032596EAE00C9461250E94CE
:101B9000E01186E3A82E82E0B82E750110E0F7016F
:101BA00001917F01812F0E94C2101F5F183009F43C
:101BB00040C00817A1F38091460281FD0E94C81021
:101BC0000E948F0DC82E10E0812F0E94C210082F96
:101BD000F50181915F01081731F1D02ED826F12C43
:101BE000EE24E3948D2D8E21B1F0CC20A1F0F9826A
:101BF0001A8391E0802F8E2109F490E09B830E944C
:101C00000A1E8160782F9D838C8349815A816B8164
:101C10008D810E949503F394EE0CF5E0FF12E2CF64
:101C2000F501319700831F5F183071F60E94680D2F
:101C3000A4CF0813C0CF9FCF1F93CF93DF930E94F1
:101C40004B0FEC01C11580E5D807F0F5C11580E414
:101C5000D80708F09CC0C03ED10520F5CD3CD10589
:101C600008F082C0C83AD10578F4C53AD10508F029
:101C700073C0C130D10519F1209709F1C430D105E5
:101C8000F0F4D0E0C0E01BC0C33CD105D0F7C85A87
:101C9000D0E0CC0FDD1FC357DE4F0990D881C02D97
:101CA000D4640DC0C11580E2D80708F0D1C0C115B9
:101CB00081E0D80708F05AC0C83ED10510F7CE0120
:101CC000DF91CF911F910895C03682E5D80718F5AE
:101CD000C03482E5D80708F06BC0C03282E5D8076F
:101CE00008F05FC0C11582E5D80708F497C02C2F13
:101CF0002695269580E2289F900111248C2F8370D1
:101D0000C1E0D0E002C0CC0FDD1F8A95E2F7C22B04
:101D1000D32BDD68D4CFC03A82E5D80760F4C03851
:101D200082E5D80708F459C0CF71D0E0DC2FCC276A
:101D3000C46FD06AC4CFC03C82E5D80708F462C043
:101D4000C03E82E5D80708F09CCFDC2FCC27CC27FB
:101D5000DF71C06FD06AB3CFC55AD0E0CD53DE4F2C
:101D6000C881D0E0D064ABCFD065A9CF8D2F0E94C1
:101D7000ED0F182FCE0199270E944B0FC12FD0E0F5
:101D8000DC2FCC27CC27DF71C82BD92B98CFCE01E5
:101D900099270E944B0FCC27DF70C82BD92BD06A14
:101DA0008ECFCF71D0E0DC2FCC27C16FD06A87CF28
:101DB0002C2F26952695277080E2289F90011124CC
:101DC0008C2F8370C1E0D0E002C0CC0FDD1F8A955C
:101DD000E2F7C22BD32BDC6872CF2C2F26952695E9
:101DE000277080E2289F900111248C2F8370C1E01E
:101DF000D0E002C0CC0FDD1F8A95E2F7C22BD32BB7
:101E0000DA685DCF8C2F8F710E94ED0FC82FD0E064
:101E1000DC2FCC27CC27DF71D06251CF8C2F8F7174
:101E20000E94ED0F55E0D695C7955A95E1F7CF7012
:101E3000D0E0DC2FCC27282F30E084FF05C044E021
:101E4000220F331F4A95E1F7C22BD32BD06937CF2E
:101E50008D2F8F710E94ED0F182FCE0199270E94B0
:101E60004B0FC12FD0E0DC2FCC27CC27DF71C82B44
:101E7000D92BD2CF462F783030F4653020F4672F3D
:101E80000E94FA01089590E080E008950E943A0FC0
:101E90000E941C0E089582389105B9F1B0F4813387
:101EA000910509F47DC048F48932910509F46DC0AB
:101EB0008A32910509F47BC008958533910509F4B0
:101EC0005FC08933910509F10895833E9105D9F1E9
:101ED00038F4803E910529F1823E910579F108950B
:101EE000863E9105D9F1873E910509F43EC0843EB6
:101EF000910541F52091910221FF24C0809190022B
:101F000084FD19C087EE90E008952091900223701F
:101F100009F05AC02091910223FF14C089E290E099
:101F200008952091900220FD38C03091910230FF39
:101F300009C024FF43C090E080E008952091900202
:101F400022FDF7CF08952091900222FD3AC03091F2
:101F5000910230FD39C024FFF5CFEDCF20919002E2
:101F600023FFF0CF24FDE7CFCDCF2091900223FDBA
:101F70002EC03091910231FFEECF84EE90E00895B3
:101F80002091900225FFDECFC9CF2091900225FD40
:101F900021C02091910223FFD5CF89E390E0D2CFD9
:101FA0002091900226FFCECF8AE290E00895209102
:101FB000900226FFC7CF81E390E0089583EE90E082
:101FC000089582EE90E0089580EE90E0089586EE08
:101FD00090E0089585E390E008959091900292FF3B
:101FE00006C0282F28712830F9F4877F846093FF7A
:101FF00006C0282F28712831F1F4877E8461209152
:10200000910220FF06C0382F38713830D9F4877F0D
:10201000816021FF06C0282F28712831D1F4877EE6
:10202000816194FD877E0895282F24712430F9F66C
:102030008B7F8860DCCF282F2471243101F78B7EC1
:102040008861DDCF382F3171313019F78E7F88608C
:10205000E0CF282F2171213121F78E7E8861E1CFD9
:1020600010928C0210928D0210928E0210928F02AA
:102070000895CF92DF92EF92FF926B017C010E9454
:102080005F1281110EC00E94161EC61AD70AE80AF6
:10209000F90AC0928C02D0928D02E0928E02F092E8
:1020A0008F02FF90EF90DF90CF9008950F931F93D2
:1020B0000E945F12882329F00E94161E1F910F9123
:1020C00008950E94161E00918C0210918D0220919D
:1020D0008E0230918F02600F711F821F931FEECF0F
:1020E00080E008950E94970C0895CF930E94E0111C
:1020F0002FEF86E791E0215080409040E1F700C04B
:1021000000000E94E0110E945C12C4E08111C0E056
:102110008C2F0E94C21090E002C095958795CA95B9
:10212000E2F780FF04C00E9472100E94711ECF91DE
:1021300008950E94751008950E949E0C811102C09E
:102140000E942D0D0E94A90C809346020E94B30CA0
:1021500090939102809390020E9499100E94AE0C7D
:1021600090E00E943F078091E4019091E5010E9478
:102170006007089508950E94BA10089508950E9476
:10218000BE100895E82FF0E0E556FD4F80810895D8
:10219000089508950E94C9100895EF92FF921F9329
:1021A000CF93DF9300D000D0CDB7DEB70E945F128F
:1021B000182F6091A302882309F447C019821A825C
:1021C0001B821C82862F90E09E012F5F3F4F79017A
:1021D000B90185569D4F0E9495128823E9F08091A0
:1021E000920290E044E050E0B70185569D4F0E9476
:1021F000882521E020934702892BC9F410E00E9432
:10220000BF10812F0F900F900F900F90DF91CF9103
:102210001F91FF90EF90089580914702882371F3FA
:1022200084E0F70111928A95E9F710924702E09154
:102230009202F0E0E556FD4F89819A81AB81BC8125
:1022400080839183A283B383DACF70E065567D4F9C
:102250008091920290E085569D4F0E941C130E942F
:10226000CA10CFCF1F93CF93DF9322E031E0C1E0BC
:10227000D0E0D90150E040E08D918F3F91F0E82F00
:10228000E295EF70F0E011A18F70BE0101C0660F02
:102290008A95EAF7962F9095912391A382A1862B98
:1022A00082A34F5F5F4F4530510531F72B5F3F4FA2
:1022B00081E026313807E9F6DF91CF911F9108952B
:1022C000CF93DF93AC01A62FB0E085E0689FF001CB
:1022D0001124EE5FFE4F75E081E060E091919F3F39
:1022E000C9F0C92FC295CF70D0E028A130E09F700F
:1022F00002C0359527959A95E2F720FD0BC0282F4F
:10230000622B880F715051F7A40FB51F6C93DF91AA
:10231000CF91089520E0F4CFA4E1B0E0E2E9F1E14B
:102320000C944D2580911601811126C084E1E0E4D2
:10233000F1E0DE01119601900D928A95E1F7FE0120
:102340003196A2E0B1E0CE01459620812C93218107
:1023500011962C931197228112962C931297238118
:1023600013962C931397248114962C9314973596D7
:1023700015968E179F0749F78091160194E08111F9
:1023800090E09093A30284E0891B809392020E94C4
:10239000321188E0EBE9F2E0DF01982F1D929A9567
:1023A000E9F7E3E9F2E0DF011D928A95E9F784E0BD
:1023B0000E941E120E94BB106496E2E00C946925F4
:1023C000A8E0B0E0E6EEF1E10C944A258E010F5F43
:1023D0001F4F88E0F80111928A95E9F7F12C6F2DD3
:1023E000C8010E946011F394F4E0FF12F8CF48E0B6
:1023F00050E0B80183E992E00E94882521E000972F
:1024000009F420E0892B41F088E0F801A3E9B2E06B
:1024100001900D928A95E1F76091A30270E06556F4
:102420007D4F44E083E992E00E941F12182F0E9422
:10243000CD10812B2896E5E00C9466250895CF9267
:10244000DF92EF92FF920F931F93CF936C017B016A
:10245000042F222349F081E080934A020E940A1E41
:102460009093490280934802C0914A02C1110AC068
:10247000C0E08C2FCF911F910F91FF90EF90DF90D4
:10248000CF90089580914802909149020E94221EA7
:10249000059770F310E0A801B601C7010E948825D6
:1024A000892B41F0A801B601C7010E949525109221
:1024B0004A02DFCFC0E0FBCF0E94300D089580912B
:1024C0004D02811107C00E941625882351F081E03A
:1024D00080934D0281E090914D02913009F080E0AF
:1024E000089582E080934D020E941125F3CF0E944F
:1024F0009E0C811102C00E942D0D0E945C128093DF
:1025000016010E945F1281110E94CB1208950E9451
:102510005F12811102C00E94CE12089581E0909155
:102520004E029A3008F080E008950F931F93CF93E6
:10253000DF93EC018B0180914E028A30B8F4B80130
:10254000CE010E941913C82F811122C080914E0222
:102550008F3FB9F40E940A1E90934C0280934B0265
:102560008C2FDF91CF911F910F91089580914B0295
:1025700090914C020E94221E843F914000F7C0E0DF
:10258000EFCF8F5F80934E028A3020F7C1E0E8CF13
:1025900010924E02E5CF0E94201B08950E94231B3B
:1025A0000895B0E0A0E0E7EDF2E10C944825790150
:1025B000C82F880FDD0B41155105A9F0FE0193E0EE
:1025C000EE0FFF1F9A95E1F7E95EFE4F8181928140
:1025D000815B9D4F208130E04217530708F49A0138
:1025E000A9010E949525CE010E940C1CD82E88239B
:1025F000D1F001151105B9F083E0CC0FDD1F8A95EC
:10260000E1F7FE01E95EFE4F438150E00417150734
:1026100008F4A801C95EDE4F6C817D81615B7D4F4E
:10262000C7010E9495258D2DCDB7DEB7E7E00C944C
:1026300064250E94131408950E942A140895A4E0AA
:10264000B0E0E5E2F3E10C944B25609164027091F7
:10265000650280916602909167020E94311E11E02E
:10266000643671058105910518F10E9456106E5F60
:102670007F4F8F4F9F4F69837A838B839C8310E0BA
:1026800000E030E020E044E050E0BE016F5F7F4FAB
:1026900082E00E94D112182F882351F00E94161E4A
:1026A0006093640270936502809366029093670260
:1026B000812F2496E4E00C946725B0E0A0E0E3E6E7
:1026C000F3E10C9445257C015B016A010E948E12A6
:1026D00001E010E0882311F00AE010E0C1E0D0E052
:1026E000B501C701F6010995811104C021960C17A7
:1026F0001D072CF4CDB7DEB7EAE00C946125CC9F22
:102700009001CD9F300D300D112490E080E045E325
:102710004A95F1F70000019682179307C1F7E0CFC1
:10272000A5E0B0E0E6E9F3E10C9445255B01E0901B
:10273000C601F090C70101E010E09E012B5F3F4F02
:1027400050E040E070E060E080E00E94D112182F7D
:10275000882309F44BC067018FEFC81AD80A60912B
:1027600060027091610280916202909163020E9406
:10277000311E643671058105910580F104E010E099
:102780009E012F5F3F4F50E040E070E060E081E04D
:102790000E94D112F82E64E070E0C6010E9400177A
:1027A00011E09D81981310E01F2159F10E94161E1F
:1027B000609360027093610280936202909363025F
:1027C00089819A81AB81BC8180935C0290935D0288
:1027D000A0935E02B0935F0211E013C064E070E06A
:1027E000C6010E9400179D818913C8CFF70181811E
:1027F0009281A381B48189839A83AB83BC831111B5
:10280000DFCF80915C0290915D02A0915E02B09159
:102810005F02F50180839183A283B383812F259684
:10282000EAE00C9461250F931F93CF93DF93EC01A3
:102830008B0140E953E10E945D13882331F04FE1A1
:1028400053E1B801CE010E945D13DF91CF911F913A
:102850000F9108950F931F93CF93DF93C091C601FB
:10286000D091C701CE01019624E0FB01DC0101906B
:102870000D922A95E1F764E070E00E9400178883CA
:102880006D817E818F819885009158021091590247
:1028900020915A0230915B026017710782079307FB
:1028A00051F0609358027093590280935A029093AA
:1028B0005B020E943910DF91CF911F910F91089513
:1028C0000E94E71F0E94A00D0E94F41F08950E941D
:1028D000F91F0E94B10D0E94132008950E94A31DAC
:1028E0000E94CD1F0E94860D0E9460140E946714F2
:1028F0000E94940DFBCF80916E0280FF0DC060910D
:10290000340170E0660F771F6038710570F561154E
:10291000710569F1862F089581FF07C06091340128
:1029200084E0689FB0011124EFCF6091340182FDF3
:102930000AC080916D028823A9F020913301609133
:102940003401821710F088E0ECCF869FC00111247B
:1029500033E0880F991F3A95E1F7622F70E00E94EB
:102960002325D2CF68E070E0D5CF8FE7089581E0CE
:10297000089580916E0280FF0CC06091300170E07C
:1029800075956795759567956115710549F1862F60
:10299000089581FF06C06091300170E075956795DC
:1029A000F3CF6091300182FD0BC090916C029923AE
:1029B000A1F060912F0180913001961738F0682FB7
:1029C00070E06038710500F38FE70895899FC001BA
:1029D000112470E00E942325F4CF61E070E0D7CF8E
:1029E00081E008958D3C31F40E947B1481958093A1
:1029F000720208958E3C19F40E947B14F8CF8F3C2C
:102A000031F40E947B148195809371020895803D7A
:102A100019F40E947B14F8CF893D29F40E94B9145F
:102A20008093730208958A3D21F40E94B914819520
:102A3000F7CF8B3D31F40E94B914819580937402D5
:102A400008958C3D19F40E94B914F8CF9FE2980FB5
:102A5000983070F4815D990B21E030E001C0220FC5
:102A60008A95EAF780917002822B80937002089514
:102A70008D3D31F480916E02816080936E020895E5
:102A80008E3D21F480916E028260F7CF8F3DB9F7C1
:102A900080916E028460F1CF409171028D3C59F4B7
:102AA0008091720287FF0DC01092720241110BC01B
:102AB00010926D0208C08E3C81F48091720218164B
:102AC0009CF3442381F08091730290917402892BCE
:102AD00009F05AC010926C0208958F3C49F447FFE8
:102AE000F0CF10927102809172028111ECCFE0CF91
:102AF000803D19F41416ACF3E4CF90917302893D34
:102B000029F41916F4F610927302DBCF8A3D19F4FA
:102B100097FFD7CFF8CF909174028B3D29F497FFA0
:102B2000D0CF10927402CDCF8C3D19F41916CCF38E
:102B3000C8CF9FE2980F983090F4815D990B21E007
:102B400030E0B90102C0660F771F8A95E2F7CB012A
:102B5000809590917002892380937002B2CF8D3D51
:102B600031F480916E028E7F80936E02AACF8E3DEB
:102B700021F480916E028D7FF7CF8F3D09F0A1CFB8
:102B800080916E028B7FF0CF08950E940A1E9C01F7
:102B90009091710280917202982B21F030936B0218
:102BA00020936A029091730280917402982B21F015
:102BB00030936902209368028FE692E00E94AE1C77
:102BC000089586E0EFE6F2E0DF011D928A95E9F7CD
:102BD00010926D0210926C0210926E020895FC0128
:102BE000828181110EC0838181110BC0848181118A
:102BF00008C091E08581811101C090E0892F81702A
:102C0000089581E0FCCFA6E0B0E0E9E0F6E10C94A5
:102C10004C2586E0EFE6F2E0DE01119601900D9280
:102C20008A95E1F71092710210927202109273026B
:102C3000109274028B819C81892B89F080916A02A9
:102C400090916B020E94221EAC0190916D0299231B
:102C5000C9F1809135018417150608F440C08D81B3
:102C60009E81892B91F080916802909169020E9467
:102C7000221EAC0190916C02992309F471C08091DD
:102C800031018417150608F479C0BE016F5F7F4FCC
:102C90008FE692E00E945B1D811105C08FE692E0F5
:102CA0000E94EF1581110E94C51586E0FE01319644
:102CB000AFE6B2E001900D928A95E1F72696E3E047
:102CC0000C946825209136018AE0289F90011124F8
:102CD0002417350720F69F5F90936D0202C09F3F37
:102CE000D1F71B81112359F00E947B149FEF11161D
:102CF0000CF491E0899F802D1124809371021C8136
:102D0000112359F00E947B149FEF11160CF491E0EF
:102D1000899F802D11248093720230917102332398
:102D200009F49DCF20917202222309F498CF45EB3C
:102D30003403C0011124992359F09093710245EB9B
:102D4000240390011124332339F03093720287CF8A
:102D500081E080937102F3CF81E0809372027FCF94
:102D6000209132018AE0289F900111242417350711
:102D700008F08BCF9F5F90936C0202C09F3FD1F70A
:102D80001D81112359F00E94B9149FEF11160CF404
:102D900091E0899F802D1124809373021E8111235D
:102DA00059F00E94B9149FEF11160CF491E0899F1D
:102DB000802D11248093740230917302332309F41F
:102DC00064CF20917402222309F45FCF45EB3403D2
:102DD000C0011124992359F09093730245EB240309
:102DE00090011124332339F0309374024ECF81E0E7
:102DF00080937302F3CF81E08093740246CF0895ED
:102E0000FC01680F791F8FEF91E36E177F0709F4BC
:102E100008952191822728E030E087FF06C0880FBF
:102E2000892721503109C9F7F0CF880FFACFFB016C
:102E30002281222341F097FF06C09F77BC0190E0DA
:102E400080E00E94681881E008950F931F93CF934C
:102E5000DF93EC018B01FB0182818823B1F00E949A
:102E6000AD0B8272FE01E053FC47E830F10568F4D7
:102E7000E251FA4D0C943725811104C081E003C062
:102E80008111FCCF8FEF0E948817B801CE010E94FC
:102E90001717DF91CF911F910F91089580E00E9445
:102EA0009017F3CF81E0FBCF82E0F9CF83E0F7CF3B
:102EB00084E0F5CF85E0F3CF9091A502923071F4D4
:102EC0008A3050F490E009966AE070E00E94232571
:102ED000875A0E94720408958650FBCF0E94E91918
:102EE000089508950E94711708958CE090E00E9463
:102EF0009E25482F50E070E060E04093A50250937B
:102F0000A6026093A7027093A8020E947217089508
:102F100008956091A5028CE090E00E94AC25089590
:102F2000CF93C82F8093A5020E9489178C2F0E94EF
:102F30007217CF9108950E94A01C8093A4029091D3
:102F4000A502913029F481FF03C089E30E94720435
:102F50000E94AD0B8093A9020E94C00B0E94D00B6F
:102F60008091A502823021F158F48823C1F081308C
:102F7000D1F08FE39CE90197F1F700C000000895BC
:102F8000843051F18530A9F78BE191E00E947E02F7
:102F900085E290E00E947E0288E290E006C082EE28
:102FA0000E94DA03E6CF88E193E00E947E02E1CF3F
:102FB0008091A40280FD03C083E50E94720482EE2A
:102FC0000E94DA038FE39CE90197F1F700C000004B
:102FD00087E50E947204CDCF86EE0E94720488E1DC
:102FE000F8CF8091A502823011F148F4882381F056
:102FF000813091F08091A9020E94BD0B0895843028
:10300000F9F08530B9F788E290E00E947E02F2CFB5
:1030100082EE0E942704EECF8CE20E94720480911F
:10302000A40281FFE7CF89E30E947204E3CF82EE1E
:103030000E9427048091A40280FDDCCF83E5F4CFB9
:1030400088E2F2CF8F929F92AF92BF92EF92FF925F
:103050000F931F93CF93DF934B015C01D091A50297
:103060008CE1E82EF12C07E010E021E0D501C4014D
:103070000E2C04C0B695A795979587950A94D2F71C
:10308000C82FCF70222339F0D43051F4CA3040F029
:1030900080E00E945C178C2F0E945C1720E005C026
:1030A000C111F9CF04301105B4F30150110984E0C6
:1030B000E81AF1080F3F1007C9F6DF91CF911F9171
:1030C0000F91FF90EF90BF90AF909F908F900895D9
:1030D000CF92DF92EF92FF926B017C01C114D10479
:1030E00081E1E806F104A0F5C114D10481E0E8060D
:1030F000F10420F08091A502823051F10E949B17CB
:10310000C114D10481E0E806F10438F18091A502F0
:10311000811123C081E0E81AF108C701B6012AE055
:1031200096958795779567952A95D1F778528F4F21
:103130009F4F0E94221883E0D822EE24FF24C7016B
:10314000B60174528F4F9F4F0E9422180E94F117B0
:10315000FF90EF90DF90CF900895C701B601F4CFB4
:10316000CF93DF93EC01FB018281882309F4D2C065
:103170009E0130572332310508F0B2C00E94B30CD3
:103180009093910280939002FE01E150F047E23269
:10319000F10520F4EA50FA4D0C9437258091900205
:1031A00081608093900293C08091910288608093A7
:1031B00091028DC0809190028260F3CF8091900245
:1031C0008460EFCF809190028860EBCF8091910274
:1031D0008160EDCF809191028260E9CF8091900271
:1031E0008061DFCF809190028062DBCF809190027E
:1031F0008064D7CF0E94EC06809190028068D1CF86
:10320000809190028C60CDCF809191028360CFCF6E
:10321000809190028E7FC5CF80919102877FC7CF2A
:10322000809190028D7FBDCF809190028B7FB9CF2E
:1032300080919002877FB5CF809191028E7FB7CF2A
:10324000809191028D7FB3CF809190028F7EA9CF24
:10325000809190028F7DA5CF809190028F7BA1CF2E
:103260000E94EC06809190028F779BCF8091900214
:10327000837F97CF809191028C7F99CF809190022C
:1032800082FB992790F921E0922790FB82F990FB2D
:1032900083F987CF80919102982F909591708E7FBE
:1032A000892B90FB81F983CF90919002892F8F7B9E
:1032B00096FF806476CF0E94EC0690919002892F51
:1032C00097FB87F980586DCF81E00E943A0D80917D
:1032D0009002909191020E94B80C0E94EC0680E04E
:1032E000DF91CF91089580E0F0CF90919002892FE7
:1032F0008F7E94FF806155CF90919002892F8E7FB1
:1033000090FF81604ECF90919102892F877F93FF2C
:1033100088604DCF81E0E4CFB0E0A0E0E2E9F9E1E0
:103320000C944825E82FF0E0E456FE4FD490282F67
:1033300026952695269530E0F901E45CFD4F049131
:10334000877010E0082E02C0159507950A94E2F7E1
:1033500001701127F901E45DFD4FE490F12C082E76
:1033600002C0F594E7940A94E2F791E0E922FF2481
:10337000F901E45EFD4FC491D0E002C0D595C79538
:103380008A95E2F7C170DD270115110519F081EE6C
:103390000E94DA03E114F10419F086EE0E94DA03C8
:1033A0008D2D0E947204E114F10419F086EE0E9442
:1033B00027040115110519F081EE0E942704CD2B79
:1033C00019F08CE20E947204CDB7DEB7E7E00C94EE
:1033D0006425982F9F709A50963020F0805D0E944F
:1033E0008C190895895AFBCFCF93DF93EB01863177
:1033F0009C4711F50E94AD0B9A81992399F08A7A26
:1034000091E009F490E090937502811109C089E27E
:103410000E94850B0E94F10B80E0DF91CF9108950F
:1034200085E3F6CF80917502811104C089E20E9484
:103430008D0BF0CF85E3FBCF81E0EFCF0F931F9390
:10344000CF93DF93C42FD22FFC0182818823C9F050
:10345000409378020E940A1E90937702809376022E
:1034600080E28C0F883040F4C77081E001C0880F83
:10347000CA95EAF70E947B04DF91CF911F910F91CB
:10348000089510917802141332C0809176029091C1
:1034900077020E94221E8D31914048F5C0E2CD0F87
:1034A0001D17B9F080E2810F883040F4177081E079
:1034B00001C0880F1A95EAF70E948204C83048F4C8
:1034C00081E09D2F977001C0880F9A95EAF70E94BE
:1034D0007B04802F0E947204C83070F6D77081E0A0
:1034E00001C0880FDA95EAF70E948204C5CF80E216
:1034F0008C0F883008F6C77081E001C0880FCA952C
:10350000EAF7F2CF0F93DB0188519C478730910592
:10351000A0F5FC01E85EF94D0C94372506E221EE9A
:1035200041EE6AE17CE7CD010E941E1A80E00F9116
:10353000089507E225EE45EE6BE17CE7F4CF06E265
:1035400021EE40EE68E17CE7EECF07E225EE44EEA7
:1035500069E17CE7E8CF06E221EE42EE6CE17CE730
:10356000E2CF07E225EE46EE6DE17CE7DCCF08E234
:1035700021E045EE6EE17CE7D6CF12968C91882350
:1035800019F010927802D3CF81E0D1CF8EE14A9B1F
:1035900002C08150E1F74A9BFECF08955A9880E21D
:1035A0008A95F1F75A9A0895FC013BE03A95F1F7B4
:1035B00098E020E080E031E040E14A95F1F7880FA3
:1035C0004A9B02C08160232742E04A95F1F7000040
:1035D00040E14A95F1F7915079F790E19A95F1F72A
:1035E00099B132E03A95F1F7000040E14A95F1F7E0
:1035F00092FB992790F992272081920F908308954A
:10360000A1E0B0E0E6E0FBE10C94492519828C01D1
:103610007C01E60EF11C0E151F0541F481E0998135
:10362000911180E02196E6E00C9465250E94C61A6F
:10363000CE0101960E94D41AF80181938F01EBCF3D
:10364000529A5A9A089552985A9AEA9AE9E6F0E0FC
:1036500080818F7C808308956150770B91E001C059
:10366000990F6A95EAF720E031E0911108C0222312
:1036700091F05A9A80E28A95F1F75A980895492F65
:10368000482339F05A9A232740E24A95F1F7969554
:10369000ECCF5A98F9CF5A98EDCFFF920F931F9322
:1036A000CF93DF93EC018C01060F111DC017D107DA
:1036B00029F4CDB7DEB7E5E00C946625F9900E94B9
:1036C000CE1A68E08F2D0E942C1BF0CF1F920F9214
:1036D0000FB60F9211240F931F932F933F934F9385
:1036E0005F936F937F938F939F93AF93BF93EF936A
:1036F000FF93CF93DF930F92CDB7DEB719820E946D
:10370000C61ACE0101960E94D41A082F0695069576
:103710000695282F22952570902F9570290F922FAE
:10372000937026952695920F982797708981982BEC
:1037300009F05CC0043008F059C080E18A95F1F7C7
:103740005A9A529A82E08A95F1F700C05A9888E016
:10375000089F80011124D801A95EBE4F1696ED91F5
:10376000FC9117973097A9F06091C6017091C7013D
:1037700014962D913C911597260F371F11968D9118
:103780009C911297680F791F13964C9113978C9107
:103790000995F801E95EFE4F6381662351F020919F
:1037A000C6013091C70184819581820F931F0E94C9
:1037B0004D1B0E94CE1A80E18A95F1F75A985298D3
:1037C0005A9A80E18A95F1F7F801E95EFE4F60812F
:1037D000662351F02091C6013091C7018181928109
:1037E000820F931F0E94001B0E94C61A0F90DF9148
:1037F000CF91FF91EF91BF91AF919F918F917F9169
:103800006F915F914F913F912F911F910F910F9069
:103810000FBE0F901F9018950F931F93CF93DF93B8
:10382000EC0104970CF04CC0F894529A5A9885E039
:103830008A95F1F700009C2F969595708C2F8570D6
:10384000980F892F83709695969523E0CC0FDD1FF6
:103850002A95E1F7980F8E01092B0E94CE1A00C01D
:1038600068E0802F0E942C1B80E18A95F1F7529826
:103870005A9A4A9B1EC087E090E04A991CC0FE01FC
:10388000E95EFE4F63816623F9F02091C601309115
:10389000C70184819581820F931F0E94001B8111B3
:1038A00013C0529A5A9A7894DF91CF911F910F9139
:1038B000089500C0DECF019729F4529A5A9A78945D
:1038C00080E0F2CF00C0D9CF0E94C61A80E28A956C
:1038D000F1F75A98529A80E18A95F1F7C95EDE4F66
:1038E0006881662351F02091C6013091C70189811A
:1038F0009A81820F931F0E944D1B0E94CE1A7894CA
:1039000081E0D2CF9093C9018093C801089590932C
:103910007F0280937E0208950E945F12811103C08E
:10392000809179020895E0917E02F0917F023097B4
:1039300029F00190F081E02D0995089580E0089527
:103940000E948C1C0895E0917E02F0917F023097D6
:1039500021F00280F381E02D09950895E0917E0227
:10396000F0917F02309739F022E0DC012C93048043
:10397000F581E02D09950895A3E0B0E0E2ECFCE1CB
:103980000C944D2520917C0230917D022817390737
:10399000A1F090937D0280937C02E0917E02F091F1
:1039A0007F02309751F023E029839B838A8306802E
:1039B000F781E02DCE01019609952396E2E00C9463
:1039C0006925A3E0B0E0E7EEFCE10C944D252091E1
:1039D0007A0230917B0228173907A1F090937B027D
:1039E00080937A02E0917E02F0917F02309751F04D
:1039F00024E029839B838A830680F781E02DCE0112
:103A0000019609952396E2E00C9469259C012E5FAE
:103A10003F4FAC01485F5F4F80E02417350709F442
:103A20000895F90191919F019923B9F38F5FF5CF23
:103A3000662349F0FC01329608962191261729F059
:103A4000E817F907D1F780E0089581E008959C0117
:103A5000FC0132969FEF80E04191461751F09F3F65
:103A600019F4411101C0982F8F5F8630A9F79F3F4D
:103A700009F40895290F311D97FD3A95F9016283E4
:103A80000895FC01329608962191261303C0DF01A8
:103A900011971C92E817F907B9F708950E94271D9E
:103AA00008950E94411D0895029626E0FC0111929E
:103AB0002A95E9F7089546E050E00E94882521E024
:103AC000892B09F420E0822F089508950E94651D36
:103AD0000895811106C081E0809380020E94661DD6
:103AE000089582E0F9CF83E0809380020E94661DF2
:103AF00008950E94691D089581E0809380020E94CC
:103B0000661D08950E947C1D0895089508950E94E1
:103B1000861D0895089508950E94851D0895CF93E8
:103B20000E948A1D0E94E0110E948B1DC0E08C2F14
:103B30000E94C210811105C0CF5FC830C1F7CF917C
:103B4000089581E0FCCF85B7806885BF85B7806820
:103B500085BF08951F921FB61F9211248F939F93C4
:103B6000AF93BF9380918102811113C08091AA020B
:103B70009091AB02A091AC02B091AD024196A11D13
:103B8000B11D8093AA029093AB02A093AC02B093B4
:103B9000AD02BF91AF919F918F911F901FBE1F905B
:103BA00018958091B202843031F10E944C0310923A
:103BB000810288E190E020E40FB6F894A895809304
:103BC00060000FBE2093600083B7817F846083BF55
:103BD00083B7816083BF7894889583B78E7F83BFD6
:103BE0000FB6F894A895809160008861809360007A
:103BF000109260000FBE08950E94EC060E945103CF
:103C0000089582E084BD93E095BD9AEF97BD8093BF
:103C10006E0008952FB7F8948091AA029091AB029C
:103C2000A091AC02B091AD022FBF08952FB7F894C8
:103C30006091AA027091AB028091AC029091AD02AA
:103C40002FBF08959C014FB7F8948091AA029091DC
:103C5000AB02A091AC02B091AD024FBF821B930B9F
:103C60000895CF92DF92EF92FF922FB7F894C09011
:103C7000AA02D090AB02E090AC02F090AD022FBF50
:103C8000A7019601261B370B480B590BCA01B90136
:103C9000FF90EF90DF90CF90089578941F921FB619
:103CA0001F9211248F939F93AF93BF938091AA0289
:103CB0009091AB02A091AC02B091AD020196A11D12
:103CC000B11D8093AA029093AB02A093AC02B09373
:103CD000AD02BF91AF919F918F911F901FBE1F901A
:103CE000189587E797E7909301088093000888E18B
:103CF0009AE00FB6F894A895809360000FBE909359
:103D00006000FFCF88E19AE00FB6F894A895809301
:103D100060000FBE90936000FFCF80918A020895EB
:103D20009B01BA019091B2029430E9F48F708093B4
:103D3000E9009FEF8091E800915085FD06C085ED78
:103D40008A95F1F700009111F5CF8091E80085FF89
:103D50000AC050E040E0C9010E948A208091E8003A
:103D60008E778093E800089543E050E0BC0182E044
:103D70000E94901E089546E050E0BC0182E00E943F
:103D8000901E0895CF93DF93EC0148E050E0BC0112
:103D900081E00E94901E88E0FE01A2E8B2E001905E
:103DA0000D928A95E1F7DF91CF9108958091B1024C
:103DB000811109C00E941A220E9477228091E2009C
:103DC00084608093E20008951092B10208950E94E9
:103DD0007C1D08956091AE0281E0611101C080E018
:103DE0000E94731D08959091B20281E0943009F011
:103DF00080E06091AE020E94791D089542E061EC7E
:103E000081E00E94962142E261EC82E00E949621CC
:103E10009091B20281E0943009F080E06091AE02AE
:103E20000E94691D08958091B402833009F461C035
:103E300030F48130D1F1823009F49EC008958A3087
:103E400009F48AC08B3009F46FC0893009F050C082
:103E50008091B302813209F04BC08091B7029091FA
:103E6000B802029708F044C08091E800877F8093F1
:103E7000E8008091E80082FF37C09091F3008091C4
:103E8000F200029731F48091F100813011F0863018
:103E900021F48091F10080938A028091E8008B7771
:103EA0008093E8000E94CA2123C08091B302813A26
:103EB000F9F48091E800877F8093E8008091B70251
:103EC0009091B802892B61F468E082E892E070E09A
:103ED0000E94D9208091E8008B778093E8000895B4
:103EE00060E090E080E0F3CF8091B2028111C1CF19
:103EF00008958091B302813AD9F78091B7029091E9
:103F0000B802892BA9F78091E800877F8093E800A9
:103F10008091E80080FFFCCF80913F018093F10009
:103F20008091E8008E77BCCF8091B302813201F797
:103F30008091B7029091B802892BD1F68091E80068
:103F4000877F8093E8000E94CA218091B502809308
:103F50003F010E94EC0608958091B302813241F640
:103F60008091E800877F8093E8000E94CA218091B9
:103F7000B60280938B0208958091B302813A09F0D2
:103F8000B7CF8091E800877F8093E8008091E800B8
:103F900080FFFCCF80918B02C1CF84B7877F84BF25
:103FA0000FB6F894A89580916000886180936000B6
:103FB000109260000FBE80E890E00FB6F8948093F6
:103FC0006100909361000FBE0E94821D08950E94BF
:103FD0001A220E947722E2EEF0E0808184608083E2
:103FE00078940E94F624089587E391E00E94871C4C
:103FF00008958091B202853031F48091B20285300B
:1040000019F00E94FC1D08950E94D11D8091B002FC
:10401000882399F30E948F1D882379F30E947420CE
:104020000E94EC06EACF08959A014091B90250919E
:10403000BA020E941C200895492F5527433051058C
:1040400019F168F44130510509F444C0423051057A
:1040500009F445C090E080E050E040E025C04132E6
:10406000510549F142325105A9F780E490E04EE351
:1040700053E061157105C1F08BE790E043EC52E02D
:104080006130710589F0E6CF99278130910581F083
:10409000009729F00297F1F6ECE4F2E002C0E2E7C3
:1040A000F2E0849190E0AF01F901518340830895DB
:1040B000E8E6F2E0F6CF89E090E048E852E06115EA
:1040C000710591F389E090E041EA52E061307105B9
:1040D00059F3C0CF82E190E041EB52E0E5CF8BE3B2
:1040E00090E046E752E0E0CF80E189BD82E189BD02
:1040F00009B400FEFDCF8091D8008F7D8093D80059
:104100008091E00082608093E0008091E00081FD7A
:10411000FCCF0895AF92BF92CF92DF92FF920F93A0
:104120001F93CF93DF936C01EB018A010E94E92179
:10413000F82E811123C00115110539F0F801808195
:104140009181C81BD90BC80ED91EB12CA12C209768
:10415000A9F08091E80085FD22C08091E8008E776B
:104160008093E80001151105A1F0F801808191818B
:10417000A80EB91EB182A08285E0F82E8F2DDF91A6
:10418000CF911F910F91FF90DF90CF90BF90AF9094
:1041900008950E94E9218823D1F2F82EEFCFF6018D
:1041A00081916F018093F1002197FFEFAF1ABF0A51
:1041B000CECFFC018091B9029091BA028617970781
:1041C000A0F06115710529F49091E8009E77909315
:1041D000E80090E06115710551F4911108C08091DB
:1041E000E80082FF34C080E00895BC01F2CF8091E6
:1041F000B2028823C1F18530C1F18091E80083FDCE
:1042000030C08091E80082FDEACF8091E80080FF15
:10421000E1CF8091F3002091F200382F61157105F4
:1042200019F02830310558F091E02830310509F0B7
:1042300090E02091E8002E772093E800CBCF819189
:104240008093F100615071092F5F3F4FE7CF80915C
:10425000B202882341F0853041F08091E80083FF6D
:10426000BECF81E0089582E0089583E00895FC01C7
:104270008091B9029091BA0286179707A0F0611554
:10428000710529F48091E8008E778093E80090E032
:104290006115710551F4911108C08091E80082FF09
:1042A00035C080E00895BC01F2CF8091B20288232E
:1042B000C9F18530C9F18091E80083FD31C080915A
:1042C000E80082FDEACF8091E80080FFE1CF809195
:1042D000F3002091F200382F6115710519F0283094
:1042E000310558F091E02830310509F090E08091D7
:1042F000E8008E778093E800CBCF84918093F10023
:104300003196615071092F5F3F4FE6CF8091B20225
:10431000882341F0853041F08091E80083FFBDCFD4
:1043200081E0089582E0089583E00895982F973002
:1043300028F08F708093E90081E008959093E90060
:10434000242F762F50E0981731F07091EC002091D7
:10435000ED005091F00021FD02C09F5FE8CF309149
:10436000EB003E7F3093EB003091ED003D7F3093CA
:10437000ED003091EB0031603093EB007093EC0076
:104380002093ED005093F0002091EE0027FDE5CF43
:1043900080E008958091B30287FF13C08091E80008
:1043A00082FF06C08091E8008B778093E80004C00C
:1043B0008091B2028111F2CF08958091B2028823D8
:1043C000D9F38091E80080FFF8CF8091E8008E77E4
:1043D000ECCF2091E4003091E50095E6A901209111
:1043E000EC00822F817020FF06C08091E80080FFE2
:1043F00006C080E008952091E80022FD1AC0809157
:10440000B202882389F0853089F08091EB0085FD28
:104410000FC02091E4003091E50042175307F9F2F4
:104420009150E1F684E0089582E0089583E00895D4
:1044300081E008950E9489220E949122E0EEF0E03E
:10444000808181608083E8EDF0E080818F778083D8
:1044500019BCA7EDB0E08C918E7F8C9380818F7E0C
:1044600080831092B10208950F931F93CF93DF932F
:104470000E9489220E949122C8EDD0E088818F7726
:10448000888388818068888388818F7D888319BC30
:104490001092B2021092AE021092B0021092AF02CD
:1044A00000EE10E0F80180818B7F8083888181603D
:1044B000888342E060E080E00E949621E1EEF0E037
:1044C00080818E7F8083E2EEF0E080818160808356
:1044D000808188608083F80180818E7F80838881DD
:1044E00080618883DF91CF911F910F910895E8ED4E
:1044F000F0E080818F7E8083E7EDF0E08081816055
:10450000808384E082BF81E08093B1020E943422E4
:104510000895E8EDF0E080818E7F80831092E200C4
:1045200008951092DA001092E10008951F920F9200
:104530000FB60F9211242F933F934F935F936F9376
:104540007F938F939F93AF93BF93EF93FF9380914C
:10455000E10082FF0BC08091E20082FF07C08091E2
:10456000E1008B7F8093E1000E94F5248091DA00C6
:1045700080FF19C08091D80080FF15C08091DA00BB
:104580008E7F8093DA008091D90080FF96C080E111
:1045900089BD82E189BD09B400FEFDCF81E0809331
:1045A000B2020E94D61E8091E10080FF19C0809166
:1045B000E20080FF15C08091E2008E7F8093E200D0
:1045C0008091E20080618093E2008091D800806257
:1045D0008093D80019BC85E08093B2020E94EA1E45
:1045E0008091E10084FF2BC08091E20084FF27C00E
:1045F00080E189BD82E189BD89B5982F917080FFE6
:10460000FBCF8091D8008F7D8093D8008091E1000E
:104610008F7E8093E1008091E2008F7E8093E200A4
:104620008091E20081608093E2008091AE02882355
:1046300009F449C084E08093B2020E94F31E809185
:10464000E10083FF29C08091E20083FF25C08091B3
:10465000E100877F8093E10082E08093B2021092B4
:10466000AE028091E1008E7F8093E1008091E200B4
:104670008E7F8093E2008091E20080618093E2006F
:1046800042E060E080E00E9496218091F000886026
:104690008093F0000E94E71EFF91EF91BF91AF91D0
:1046A0009F918F917F916F915F914F913F912F914A
:1046B0000F900FBE0F901F90189519BC1092B20268
:1046C0000E94E41E70CF8091E30087FD93E09093F9
:1046D000B202B3CF1F920F920FB60F9211242F93F5
:1046E0003F934F935F936F937F938F939F93AF937A
:1046F000BF93CF93DF93EF93FF93D091E900DF70E7
:104700008091EC00C82FC17080FDC0E81092E900D4
:104710008091F000877F8093F00078940E94AE2310
:104720001092E9008091F00088608093F000CD2B1A
:10473000CF70C093E900FF91EF91DF91CF91BF91CE
:10474000AF919F918F917F916F915F914F913F9129
:104750002F910F900FBE0F901F901895AAE2B0E016
:10476000E4EBF3E20C944C2583EB92E02091F10012
:10477000FC012193CF01F2E08B3B9F07B9F70E9428
:10478000131F8091E80083FF1EC18091B3029091B6
:10479000B4029A3008F017C1E92FF0E0E15EF94D5C
:1047A0000C943725803899F0823809F00CC180913B
:1047B000B7028F70873008F006C18093E9008091BE
:1047C000EB0085FB882780F91092E90006C08091F4
:1047D000AF029091B002911182609091E800977FB2
:1047E0009093E8008093F1001092F1008091E8002E
:1047F0008E77E5C0882309F4D3C0823009F0E3C086
:104800008091B5028111D6C08091B7028F702FEFD1
:10481000280F263008F0D7C08093E9002091EB00E4
:1048200020FFC8C0933031F48091EB008062809308
:10483000EB00C0C09091EB0090619093EB0021E001
:1048400030E001C0220F8A95EAF72093EA00109227
:10485000EA008091EB008860EACF8111B4C010912A
:10486000B5021F778091E3008078812B8093E3006D
:104870008091E800877F8093E8000E94CA218091A0
:10488000E80080FFFCCF8091E30080688093E30024
:1048900082E0111183E08093B20295C0805882308B
:1048A00008F091C08091B5029091B6028C3D23E052
:1048B0009207A1F583E08A838AE289834FB7F8944F
:1048C000DE01139620E03EE051E2E32FF0E050934A
:1048D0005700E49120FF03C0E295EF703F5FEF7057
:1048E0008E2F90E0EA30C0F0C7968D939D932F5F96
:1048F000243159F74FBF8091E800877F8093E8000B
:104900006AE270E0CE0101960E94D9208091E80011
:104910008B778093E80057C0C096E7CF6091B702CD
:104920007091B802AE014F5F5F4F0E941420BC012E
:10493000892B09F448C09091E800977F9093E80094
:1049400089819A810E943721E1CF8038E1F58091F9
:10495000E800877F8093E8008091AE028093F100A9
:1049600045CF811130C09091B502923060F58091B1
:10497000E800877F8093E8009093AE020E94CA21EE
:104980008091AE02882311F084E005C08091E3009D
:1049900087FDFACF81E08093B2020E94FE1E13C011
:1049A0008091B502813079F481E0933009F080E0A4
:1049B0008093B0021092E9008091E800877F809395
:1049C000E8000E94CA218091E80083FF0AC080911C
:1049D000E800877F8093E8008091EB0080628093FD
:1049E000EB00AA96E3E00C9468250895CF9380919C
:1049F000B2028823A1F0C091E900CF709091EC0041
:104A0000892F817090FD80E8C82B1092E900809179
:104A1000E80083FD0E94AE23CF70C093E900CF91E0
:104A200008950E941A221092B2020895E8EDF0E073
:104A30008081806180838AE18A95F1F700C080914E
:104A4000D9008170089597FB072E16F4009407D0C3
:104A500077FD09D00E94742507FC05D03EF490959F
:104A600081959F4F0895709561957F4F0895EE0F42
:104A7000FF1F0590F491E02D09942F923F924F92E1
:104A80005F926F927F928F929F92AF92BF92CF92DE
:104A9000DF92EF92FF920F931F93CF93DF93CDB7E7
:104AA000DEB7CA1BDB0B0FB6F894DEBF0FBECDBF5F
:104AB00009942A88398848885F846E847D848C8430
:104AC0009B84AA84B984C884DF80EE80FD800C8139
:104AD0001B81AA81B981CE0FD11D0FB6F894DEBF1C
:104AE0000FBECDBFED010895AA1BBB1B51E107C04E
:104AF000AA1FBB1FA617B70710F0A61BB70B881F6E
:104B0000991F5A95A9F780959095BC01CD010895FC
:104B1000FB01DC0104C08D910190801921F441500A
:104B20005040C8F7881B990B0895FB01DC0102C0B7
:104B300001900D9241505040D8F70895F999FECF59
:104B400092BD81BDF89A992780B50895A8E1B0E09B
:104B500042E050E00C94D225262FF999FECF92BD69
:104B600081BDF89A019700B4021639F01FBA20BD32
:104B70000FB6F894FA9AF99A0FBE08950396272F64
:104B80000E94AD250E94AC25252F0E94AD25242F23
:104B90000C94AD250196272F0E94AD250C94AC25D1
:104BA000DC01CB01FC01F999FECF06C0F2BDE1BDED
:104BB000F89A319600B40D9241505040B8F70895DC
:104BC000F894FFCFC804C804180518058505A10589
:104BD000F704F704A6051706260626063C17401715
:104BE0004E1752175417561758175A1708197C1989
:104BF0001019DA18DE181419E21818192419EE1809
:104C00007519F2182819F6182C195419FA183019B0
:104C10005B19001936193E19E6181C19EA182019F3
:104C200004193A194A1964197319D4180C198319FB
:104C30009F1AA51A8E1A991AAB1AB11AB71AD2234B
:104C4000FA23E324FA23E3242D244E24E324A52489
:024C5000B1248D
:104C52002A02C6F7F6F5F431333236939190946610
:104C6200973435FFFFFF0100000001000000000043
:104C720000000401000000040500000000000064C0
:104C820008320A280A100A8D1EC21EBB1EB41E015B
:104C9200F4F5F6F7C6933632333197669490913530
:104CA20034FFFFFFE200E900EA00B500B600B700FA
:104CB200CD008301CC008A019201940121022302DA
:104CC20024022502260227022A02B300B4006F0042
:104CD20070009F01CB019F02A002818283E200E962
:104CE20000EA00B500B600B700CD008301CC008A0F
:104CF20001920194012102230224022502260227A5
:104D0200022A02B300B4006F0070009F01CB019F22
:084D120002A0028182834F021E
:00000001FF
